:020000040800F2
:10000000008001202D0E0008D10D0008D30D00083E
:10001000D50D0008D70D0008D90D0008000000001C
:10002000000000000000000000000000DB0D0008E0
:10003000DD0D000800000000DF0D0008E10D0008E4
:100040007D0E00087D0E00087D0E00087D0E000864
:100050007D0E00087D0E00087D0E00087D0E000854
:100060007D0E00087D0E00087D0E00087D0E000844
:100070007D0E00087D0E00087D0E00087D0E000834
:100080007D0E00087D0E00087D0E00087D0E000824
:100090007D0E00087D0E00087D0E00087D0E000814
:1000A0007D0E00087D0E00087D0E00087D0E000804
:1000B0007D0E00087D0E00087D0E00087D0E0008F4
:1000C0007D0E00087D0E00087D0E00087D0E0008E4
:1000D0007D0E00087D0E00087D0E00087D0E0008D4
:1000E0007D0E00087D0E00087D0E00087D0E0008C4
:1000F0007D0E00087D0E00087D0E00087D0E0008B4
:100100007D0E00087D0E00087D0E00087D0E0008A3
:100110007D0E00087D0E00087D0E00087D0E000893
:100120007D0E00087D0E00087D0E00087D0E000883
:100130007D0E00087D0E00087D0E00087D0E000873
:100140007D0E00087D0E00087D0E00087D0E000863
:100150007D0E00087D0E00087D0E00087D0E000853
:100160007D0E00087D0E00087D0E00087D0E000843
:100170007D0E00087D0E0008000000000000000059
:080180007D0E00087D0E000851
:1001880010B5054C237833B9044B13B10448AFF3C9
:1001980000800123237010BD0C0000200000000027
:1001A800D80E000808B5034B1BB103490348AFF349
:1001B800008008BD0000000010000020D80E0008D4
:1001C80038B50F4B0546186808B9012038BD0D4AE7
:1001D8004FF47A73B3FBF0F31068B0FBF3F000F060
:1001E80091F804460028F0D10F2DEED80246294692
:1001F8004FF0FF3000F052F8034B20461D6038BD29
:1002080000000020080000200400002010B5032092
:1002180000F032F80020FFF7D3FF044618B900F0C9
:10022800BBFD204610BD0124FBE70000034A04493A
:10023800136809680B441360704700BF280000204A
:1002480000000020014B1868704700BF28000020FC
:1002580038B50446FFF7F6FF631C1CBF054B1B6847
:10026800054618BFE418FFF7EDFF401B8442FAD893
:1002780038BD00BF00000020074AD36823F4E063BC
:100288001B041B0C43F0BF63000243F4003300F46B
:10029800E0600343D360704700ED00E0174B30B5D2
:1002A800DC68C4F30224C4F10703251D042B28BF0E
:1002B8000423062D4FF0010505FA03F303F1FF337C
:1002C8008CBF033C00241940A14005FA04F4013C0A
:1002D8002240002842EA01024FEA0212ADBF00F1B3
:1002E800604000F00F00064B00F56140B5BFD2B288
:1002F800D2B21A5480F8002330BD00BF00ED00E0F0
:1003080014ED00E00138B0F1807F0AD2064B074AAD
:100318005860F02182F823100020072298601A60A4
:1003280070470120704700BF10E000E000ED00E0DA
:100338002DE9F04F85B00B68DFF8A881674C019371
:100348000023019ADA4002D105B0BDE8F08F0126FA
:10035800019A9E4012EA060E00F0B1804A6822F027
:100368001007022F16D14FEAD30900EB890903F0D1
:10037800070AD9F820504FEA8A0A4FF00F0C0CFAF6
:100388000AFC25EA0C0C0D6905FA0AF545EA0C0584
:10039800C9F820504FEA430C0325D0F800B005FAFD
:1003A8000CF5ED4302F0030A0BEA050B0AFA0CF907
:1003B800013F49EA0B09012FC0F8009011D887685E
:1003C80005EA0709CF6807FA0CF747EA09078760C3
:1003D800476827EA0609C2F300179F4047EA09075A
:1003E8004760BAF1030F07D1C76A27EA0606C2F3C6
:1003F800C0079F403E43C662C66835408E6806FA0D
:100408000CF63543C560D50059D5D8F8605045F08D
:100418000105C8F86050D8F8605023F0030606F1CB
:10042800804605F0010506F58036039503F0030CB8
:10043800039DB5684FEA8C0C0F2707FA0CF7B0F14B
:10044800904F25EA07073CD0254DA8423BD005F53B
:100458008065A84239D005F58065A84237D005F5F2
:100468008065A84235D005F58065A84233D005F5EA
:100478008065A84214BF0725062505FA0CF53D43FB
:10048800B56025686FEA0E06D70354BF35404EEABB
:10049800050525606568970354BF35404EEA050594
:1004A8006560A568D70254BF35404EEA0505A560CA
:1004B800E568920254BF35404EEA0505E560013310
:1004C8003FE70025D9E70125D7E70225D5E703252A
:1004D800D3E70425D1E70525CFE700BF0004014095
:1004E80000040048001002400AB18161704781622F
:1004F80070470000024B186800F4C060704700BFE6
:1005080000700040174B1A68B0F5007F02F4C06213
:100518001CD1B2F5007F15D01A6822F4C06242F4EB
:1005280000721A60104A116832224A430F49B2FB1E
:10053800F1F2194601325869400500D522B94B69D4
:100548005B050DD400207047013AF4E7B2F5806FDF
:100558001FBF1A6822F4C06242F480621A60F1E791
:1005680003207047007000400800002040420F0040
:1005780037B51E4DAB6DDA00044618D5FFF7BAFF44
:10058800B0F5007F23D1802C29D9A02C8CBF022064
:100598000120174A136823F0070303431360136805
:1005A80003F00703181A18BF012003B030BDAB6D64
:1005B80043F08053AB65AB6D03F080530193019B0F
:1005C800FFF798FFAB6D23F08053AB65D8E7802C1D
:1005D80007D808D0A4F1700358425841D9E7002041
:1005E800D7E70320D5E70220D3E700BF0010024079
:1005F80000200240224B9A68D96812F00C0205D0FC
:100608000C2A15D101F00301012918D119681D48D8
:10061800090755BFD3F894101968C1F30321C1F332
:10062800031150F821004AB30C2A09D00020704762
:10063800042A22D0082A144818BF00207047002036
:10064800DA6802F00302022A15D00F49032A08BF0C
:100658000846DA68D968DB68C3F34163C1F3062149
:10066800C2F302120133484301325B00B0FBF2F0DF
:10067800B0FBF3F070470548EBE70448704700BF4C
:1006880000100240000F000800127A000024F40055
:100698002DE9F743054608B9012047E0A64C036851
:1006A800A668E768DB0606F00C0607F0030773D5B3
:1006B8001EB10C2E52D1012F50D12368980702D5B4
:1006C800AB69002BE8D02368286A190756BFD4F80D
:1006D800943023681B0903F0F003834229D2FFF703
:1006E80047FF0028D8D1236843F008032360236814
:1006F8002A6A23F0F003134323606368EA6923F44A
:100708007F4343EA02236360FFF774FFA3688B4AC1
:10071800C3F30313D35C03F01F03D840884B18605E
:10072800884B1868FFF74CFD002835D003B0BDE8AA
:10073800F083236843F008032360236823F0F00361
:10074800034323606368EA6923F47F4343EA02238F
:100758006360FFF70DFF0028D6D09DE7AB69002B3B
:1007680036D0236843F001032360FFF76BFD804612
:1007780023689A0724D5236843F008032360236875
:100788002A6A23F0F003134323606368EA6923F4B9
:100798007F4343EA022363602B68D80729D42B6878
:1007A800990767D42B68180700F19C802B685907B4
:1007B80000F1CA80A86A002840F033810020B5E71C
:1007C800FFF740FDA0EB08000228D1D90320ADE7D0
:1007D800236823F001032360FFF734FD8046236874
:1007E8009B07D9D5FFF72EFDA0EB08000228F6D904
:1007F800ECE7082E03D00C2E08D1032F06D123686E
:100808009A03CCD56B68002BC9D145E76B68B3F563
:10081800803F10D1236843F480332360FFF712FD33
:10082800804623689B03BAD4FFF70CFDA0EB0800B1
:100838006428F6D9CAE7B3F5A02F04D1236843F496
:1008480080232360E6E7226822F48032226022684F
:1008580022F480222260002BE0D1FFF7F3FC8046CF
:10086800236898039BD5FFF7EDFCA0EB08006428EC
:10087800F6D9ABE7042E03D00C2E10D1022F0ED1DF
:100888002368590503D5EB68002B3FF405AF63686F
:100898002A6923F0F85343EA0263636082E7EB684E
:1008A8007BB1236843F480732360FFF7CBFC0746D2
:1008B80023685A05EBD4FFF7C5FCC01B0228F7D9FB
:1008C80084E7236823F480732360FFF7BBFC0746A3
:1008D80023685B057FF566AFFFF7B4FCC01B0228F1
:1008E800F6D973E76B699BB1D4F8943043F00103F0
:1008F800C4F89430FFF7A6FC0746D4F894309A075A
:100908003FF554AFFFF79EFCC01B0228F5D95DE701
:10091800D4F8943023F00103C4F89430FFF792FC24
:100928000746D4F894309B077FF540AFFFF78AFC61
:10093800C01B0228F5D949E700100240F00E000854
:100948000800002004000020A36DD80029D4A36D5E
:1009580043F08053A365A36D03F080530193019B7B
:100968004FF00108794F3B68D9051DD5AB68012BBD
:100978002BD1D4F8903043F00103C4F89030FFF73E
:1009880061FC41F288390746D4F890309B0742D57C
:10099800B8F1000F3FF40EAFA36D23F08053A365A9
:1009A80008E74FF00008DDE73B6843F480733B60DD
:1009B800FFF748FC81463B68DA05D7D4FFF742FCCD
:1009C800A0EB09000228F6D900E7052B06D1D4F8D8
:1009D800903043F00403C4F89030CAE7D4F890206C
:1009E80022F00102C4F89020D4F8902022F00402EA
:1009F800C4F89020002BC2D1FFF724FC41F28839BB
:100A08000746D4F890309807C2D5FFF71BFCC01BE7
:100A18004845F6D9DAE6FFF715FCC01B4845B3D9B7
:100A2800D4E60C2E5CD02368022823F08073236060
:100A38003BD1FFF707FC0646236899012FD4E268EB
:100A4800434B1340EA6A13436A6B43EA02232A6B57
:100A5800013A43EA0213AA6B120943EA4243EA6BDA
:100A68005208013A43EA42532A6C5208013A43EACF
:100A78004263E360236843F080732360E36843F0D4
:100A88008073E360FFF7DEFB054623689A013FF5B4
:100A980095AEFFF7D7FB401B0228F6D996E6FFF77D
:100AA800D1FB801B0228C7D990E6236813F0205F8A
:100AB80002BFE36823F00303E360E36823F088736D
:100AC80023F48033E360FFF7BDFB054623689B01F1
:100AD8007FF574AEFFF7B6FB401B0228F6D975E622
:100AE80001283FF423AEE368EA6A03F00301914268
:100AF8007FF4D2AD296B03F070020139B2EB011F0C
:100B08007FF4CAAD696B03F4FE42B2EB012F7FF4A8
:100B1800C3ADAA6B073A03F4003118BF0122914212
:100B28007FF4BAADEA6B520803F4C001013AB1EBA5
:100B3800425F7FF4B1AD2A6C5208013A03F0C063FA
:100B4800B3EB426F14BF01200020EFE500700040B6
:100B58008C809DF92DE9F0410E46044610B901201C
:100B6800BDE8F081414A136803F007038B422AD39A
:100B78002368D90732D421688A075CD43B4A1368B2
:100B880003F007039E425ED311F0040F384D65D180
:100B98000B0706D5AB68226923F4605343EAC20306
:100BA800AB60FFF727FDAB68324AC3F30313BDE818
:100BB800F041D35C03F01F03D8402F4B18602F4B34
:100BC8001868FFF7FDBA136823F007030B43136097
:100BD800136803F007039942C1D1C9E76268244D3D
:100BE800032A2B681BD113F0007FB8D0AB6823F021
:100BF80003031343AB60FFF725FB41F28838074630
:100C0800AB68626803F00C03B3EB820FB3D0FFF755
:100C180019FBC01B4045F3D90320BDE8F081022A27
:100C280002D113F4003FE0E712B913F0020FDCE73A
:100C380013F4806FD9E70E4AA068936823F0F00395
:100C4800034393609AE7136823F007033343136061
:100C5800136803F007039E4281D195E7AB68E26809
:100C680023F4E0631343AB6092E700BF0020024027
:100C780000100240F00E00080800002004000020C8
:100C880000B597B04422002105A800F019F91422F4
:100C98000021684600F014F91023059301230B93F3
:100CA80005A860230D93FFF7F3FC00210F23684686
:100CB80000930191029103910491FFF74BFF4FF4C8
:100CC8000070FFF71FFC17B05DF804FB00B589B092
:100CD800FFF79CFAFFF7D4FF1422002103A800F0C5
:100CE800EFF82A4B2A48DA6C42F01002DA64DA6C20
:100CF80002F010020192019ADA6C42F00202DA6400
:100D0800DB6C03F00203029300220821029BFFF729
:100D1800EBFB00224FF480411E48FFF7E5FB00245F
:100D28000823012503A91A480393049505940694FA
:100D3800FFF7FEFA4FF4804303A91648049505947B
:100D480006940393FFF7F4FA124D114C01224FF465
:100D580080412846FFF7C8FB4FF47A70FFF778FA0E
:100D6800284600224FF48041FFF7BEFB00220821ED
:100D78002046FFF7B9FB4FF47A70FFF769FA0122B2
:100D880008212046FFF7B0FBE0E700BF0010024053
:100D980000100048000400480A4B1A6E42F0010295
:100DA8001A661A6E82B002F001020092009A9A6DD9
:100DB80042F080529A659B6D03F080530193019B2A
:100DC80002B07047001002407047FEE7FEE7FEE7FA
:100DD800FEE7704770477047FFF728BA0F49D1F808
:100DE800883043F47003C1F888300D4B1A6800202E
:100DF80042F001021A6098601A6822F0A85222F4A0
:100E080010221A604FF48052DA601A6822F48022A5
:100E18001A6098614FF000638B60704700ED00E046
:100E280000100240DFF834D0002103E00C4B5B587F
:100E3800435004310B480C4B42189A42F6D30B4AE4
:100E480002E0002342F8043B094B9A42F9D3FFF72A
:100E5800C5FF00F011F8FFF739FFFEE70080012019
:100E6800380F0008000000200C0000200C000020B3
:100E78002C000020FEE7000070B50D4E0D4CA41BA1
:100E8800A4100025A54209D10B4E0C4C00F020F807
:100E9800A41BA4100025A54205D170BD56F8253025
:100EA80098470135EEE756F8253098470135F2E7BF
:100EB800300F0008300F0008300F0008340F00080A
:100EC80002440346934200D1704703F8011BF9E737
:100ED800F8B500BFF8BC08BC9E467047F8B500BF1F
:080EE800F8BC08BC9E467047EF
:100EF00000000000000000000102030406070809CA
:100F0000A0860100400D0300801A060000350C0089
:100F100040420F0080841E0000093D0000127A004C
:100F20000024F40000366E010048E801006CDC0289
:040F3000AD01000807
:040F34008901000827
:0C0F3800010000001000000000093D0056
:0400000508000E2DB4
:00000001FF
